:1000000004308A00662C0000FF00030E8301A1006B
:100010000A08A0008A010408A2007708A300780853
:10002000A4007908A5007A08A6007B08A70083131E
:1000300083128B1E1D280B193028220884002308E8
:10004000F7002408F8002508F9002608FA00270818
:10005000FB0020088A00210E8300FF0E7F0E09009E
:100060008A110A12BC2AFB0000307A078A007B083A
:100070003C3E03188A0A8200003400340034003405
:100080000034003400345F3400340034003407346A
:1000900000340734003414347F3414347F3414347F
:1000A00024342A347F342A34123423341334083469
:1000B0006434623436344934553422345034003494
:1000C000053403340034003400341C342234413409
:1000D00000340034413422341C34003414340834E5
:1000E0003E3408341434083408343E3408340834B8
:1000F00000345034303400340034083408340834C8
:10010000083408340034603460340034003420345F
:1001100010340834043402343E3451344934453404
:100120003E34003442347F3440340034423461344D
:100130005134493446342134413445344B3431341C
:100140001834143412347F34103427344534453491
:10015000453439343C344A34493449343034013438
:10016000713409340534033436344934493449345C
:10017000363406344934493429341E340034363494
:10018000363400340034003456343634003400340D
:100190000834143422344134003414341434143404
:1001A0001434143400344134223414340834023406
:1001B0000134513409340634323449347934413409
:1001C0003E347E341134113411347E347F3449345A
:1001D0004934493436343E34413441344134223494
:1001E0007F344134413422341C347F34493449341F
:1001F000493441347F3409340934093401343E34FC
:100200004134493449347A347F340834083408346A
:100210007F34003441347F3441340034203440345E
:1002200041343F3401347F340834143422344134AF
:100230007F3440344034403440347F3402340C3412
:1002400002347F347F340434083410347F343E3435
:100250004134413441343E347F3409340934093463
:1002600006343E344134513421345E347F34093411
:100270001934293446344634493449344934313404
:10028000013401347F34013401343F34403440348C
:1002900040343F341F342034403420341F343F3442
:1002A0004034383440343F34633414340834143424
:1002B00063340734083470340834073461345134FB
:1002C00049344534433400347F34413441340034BC
:1002D00002340434083410342034003441344134BE
:1002E0007F340034043402340134023404344034A2
:1002F0004034403440344034003401340234043457
:100300000034203454345434543478347F344834F2
:100310004434443438343834443444344434203459
:1003200038344434443448347F34383454345434C6
:100330005434183408347E340934013402340C3413
:100340005234523452343E347F340834043404344A
:100350007834003444347D34403400342034403424
:1003600044343D3400347F34103428344434003471
:10037000003441347F34403400347C340434183445
:10038000043478347C340834043404347834383415
:1003900044344434443438347C3414341434143401
:1003A000083408341434143418347C347C3408345D
:1003B0000434043408344834543454345434203429
:1003C00004343F344434403420343C3440344034EA
:1003D00020347C341C342034403420341C343C34ED
:1003E0004034303440343C344434283410342834DD
:1003F00044340C345034503450343C344434643439
:1004000054344C34443400340834363441340034E9
:10041000003400347F340034003400344134363446
:100420000834003410340834083410340834783474
:1004300046344134463478340034003400340034D7
:10044000003400340034003400340034003400340C
:1004500000340034003400340034003400340034FC
:1004600000340034003400340034003400340034EC
:1004700000340034003400340034003400340034DC
:1004800000340034003400340034003400340034CC
:1004900000340034003400340034003400340034BC
:1004A00000340034003400340034003400340034AC
:1004B000003400340034003400340034003400349C
:1004C000003400340034003400340034003400348C
:1004D000003400340034003400340034003400347C
:1004E000003400340034003400340034003400346C
:1004F000003400340034003400340034003400345C
:10050000003400340034003400340034003400344B
:10051000003400340034003400340034003400343B
:10052000003400340034003400340034003400342B
:10053000003400340034003400340034003400341B
:10054000003400340034003400340034003400340B
:1005500000340034003400340034003400340034FB
:1005600000340034003400340034003400340034EB
:100570000034003400340034AF0A2F08463C031D19
:10058000C72AAF01831686138030831286060B11AB
:100590008A110A121D28D334E53665377310C11B42
:1005A00030102D10CF250000323084008313000856
:1005B0000319E82A0530F800F701F70BDD2AF80BDC
:1005C000DC2A2E30F700F70BE32AE62A800BDA2A22
:1005D00008003A08083C0319F12ABB00B90DBB0B0F
:1005E000EE2AA816280883168700861006118312A3
:1005F00006113A08BB00B91F8610B91B8614B90D45
:1006000006150530BC00BC0B032BF80D871E7810B7
:10061000871A781406110430BC00BC0B0D2BBB0BE1
:10062000FB2A8A110A12192B3808B9000830BA00BF
:10063000E92A080086108316861083120611831695
:100640000611831206128316061283120710281051
:1006500028088316870083123408B800142307146F
:100660002810280883168700831208000D30F70031
:10067000F70B382B8610831686108312061183160B
:10068000061183120612831606120D30F700F70BBF
:10069000472B83128714A8102808831687000D3073
:1006A000F700F70B512B8312071028102808831628
:1006B00087000D30F700F70B5B2B83128710A81013
:1006C0002808831687000D30F700F70B652B83127F
:1006D0008714A8102808831687008312071428108F
:1006E00028088316870021308312B4001A2314309F
:1006F000B4001A230A30B4001A230530B4001A23B8
:10070000CC30B4001A232030B4001A231130B400C6
:100710001A230C30B4001A238A110A12942C2830A0
:10072000B4001A233208473CB300B4001A238030C7
:100730003107B300B4001A233108AD003208AE000F
:100740000800861083168610831206118316061180
:100750008312061683160612831207102810280823
:100760008316870083123708B80014230714281053
:1007700028088316870083120800B1010730B200F1
:100780008F23AC01AB012C08033C031CD32B031DAE
:10079000CD2B2B082E3C031CD32BB701A123AB0A76
:1007A0000319AC0AC32B8A110A12952C34081F3C7A
:1007B0000318DD2B34087F3C031C1D2CB5013508C4
:1007C000043C031C1B2C3408E03EB800BA01380876
:1007D000B900BC010530BB001030BD00F701FA01C3
:1007E000BA0CB90C031CFA2B3B08F7070318FA0ADA
:1007F0003C08FA07FA0CF70CF90CF80CBD0BF02BBF
:100800007908B8007808B70035087807F800790843
:10081000FA000318FA0A78083320F800B600B60880
:10082000031D162C3408203C031D192C3608B70074
:10083000A123B50ADF2BB701A123080083160317F4
:100840008C170C140000000083120C087F39031968
:10085000622C0313B10003170D080313B200031732
:100860000F080313B3003108B400D623320803176E
:100870008D000313330803178F0083168C170C1495
:100880000000000083120C0D0E0D7F390319622C3D
:100890000313B10003170D080313B20003170F0869
:1008A0000313B3003108B400D623320803178D00B8
:1008B0000313330803178F008D0A03198F0A0313DC
:1008C0001E2C031703138A110A12C12C84018313EF
:1008D0001F308305FF30A800A8162808831687005C
:1008E0008610061183120611AD01AE0183161F1486
:1008F0009F141F159F118312A901AA0183160108D5
:10090000C039073881001F149F141F159F118312CF
:100910001F108B16C0308B040230B100FA30B200C9
:10092000D422B10B8E2C362BBD2BB101B2018F23FB
:10093000B0013008313C031CA52CFF30B700A123C7
:100940001430B200D422B00A992CB1010230B200A6
:100950008F23B0013008313C031CB62CFF30B700A8
:10096000A1231430B200D422B00AAA2CB101043061
:10097000B2008F23CB3003178D0002308F0003139A
:060980001E2CC12C6300D7
:02400E003A3D39
:00000001FF
;PIC16F876
;CRC=20C0  CREATED="12-jan-15 10:57"
