:100000000C94F2040C940F050C940F050C940F053E
:100010000C940F050C940F050C940F050C940F0510
:100020000C940F050C940F050C940F050C942007ED
:100030000C940F050C940F050C940F050C940F05F0
:100040000C940F050C940F050C94BC070C940F0531
:100050000C940F050C940F050C940F050C940F05D0
:100060000C940F050C940F05000000000000000028
:100070000000000000307878783030003030000028
:10008000006666662400000000000000006C6CFE44
:100090006C6C6CFE6C6C000030307CC0C0780C0C5A
:1000A000F8303000000000C4CC183060CC8C000068
:1000B0000070D8D870FADECCDC760000003030302A
:1000C0006000000000000000000C1830606060302C
:1000D000180C0000006030180C0C0C183060000088
:1000E000000000663CFF3C660000000000000018B5
:1000F000187E18180000000000000000000000003A
:10010000383860000000000000FE00000000000021
:100110000000000000000000383800000000020667
:100120000C183060C0800000007CC6CEDED6F6E63B
:10013000C67C0000001030F03030303030FC000061
:100140000078CCCC0C183060CCFC00000078CC0CD3
:100150000C380C0CCC780000000C1C3C6CCCFE0C59
:100160000C1E000000FCC0C0C0F80C0CCC780000D5
:10017000003860C0C0F8CCCCCC78000000FEC6C609
:10018000060C1830303000000078CCCCCC78CCCCC9
:10019000CC7800000078CCCCCC7C181830700000F3
:1001A0000000003838000038380000000000003837
:1001B0003800003838183000000C183060C060304B
:1001C000180C0000000000007E007E00000000000F
:1001D000006030180C060C18306000000078CC0C61
:1001E0001830300030300000007CC6C6DEDEDEC0D5
:1001F000C07C0000003078CCCCCCFCCCCCCC000057
:1002000000FC6666667C666666FC0000003C66C6AE
:10021000C0C0C0C6663C000000F86C6666666666D4
:100220006CF8000000FE6260647C646062FE0000A6
:1002300000FE6662647C646060F00000003C66C69C
:10024000C0C0CEC6663E000000CCCCCCCCFCCCCC32
:10025000CCCC0000007830303030303030780000C6
:10026000001E0C0C0C0CCCCCCC78000000E6666CAC
:100270006C786C6C66E6000000F06060606062663E
:1002800066FE000000C6EEFEFED6C6C6C6C600006C
:1002900000C6C6E6F6FEDECEC6C6000000386CC656
:1002A000C6C6C6C66C38000000FC6666667C606028
:1002B00060F0000000386CC6C6C6CEDE7C0C1E00A6
:1002C00000FC6666667C6C6666E600000078CCCC56
:1002D000C07018CCCC78000000FCB4303030303026
:1002E0003078000000CCCCCCCCCCCCCCCC7800008E
:1002F00000CCCCCCCCCCCCCC7830000000C6C6C670
:10030000C6D6D66C6C6C000000CCCCCC783078CCE7
:10031000CCCC000000CCCCCCCC7830303078000095
:1003200000FECE9818306062C6FE0000003C3030FF
:1003300030303030303C0000000080C06030180C9D
:1003400006020000003C0C0C0C0C0C0C0C3C0000D9
:1003500010386CC600000000000000000000000023
:10036000000000000000FF00303018000000000016
:100370000000000000000000780C7CCCCC7600006F
:1003800000E060607C66666666DC000000000000DD
:1003900078CCC0C0CC780000001C0C0C7CCCCCCC41
:1003A000CC7600000000000078CCFCC0CC780000C7
:1003B00000386C6060F8606060F0000000000000D1
:1003C00076CCCCCC7C0CCC7800E060606C76666639
:1003D00066E600000018180078181818187E00004B
:1003E000000C0C003C0C0C0C0CCCCC7800E06060D9
:1003F000666C786C66E600000078181818181818F3
:10040000187E000000000000FCD6D6D6D6C600003C
:1004100000000000F8CCCCCCCCCC000000000000E8
:1004200078CCCCCCCC78000000000000DC6666669E
:10043000667C60F00000000076CCCCCCCC7C0C1E3E
:1004400000000000EC6E766060F00000000000002C
:1004500078CC6018CC78000000002060FC60606000
:100460006C38000000000000CCCCCCCCCC76000076
:1004700000000000CCCCCCCC7830000000000000A4
:10048000C6C6D6D66C6C000000000000C66C3838BA
:100490006CC6000000000000666666663C0C18F042
:1004A00000000000FC8C1860C4FC0000001C303010
:1004B00060C06030301C00000018181818001818B0
:1004C0001818000000E03030180C183030E0000040
:1004D0000073DACE000000000000000000000010F1
:1004E000386CC6C6FE0000000000000000000000DE
:1004F000000000F2F200000000E0E00000E0E00098
:1005000028FEFE2828FEFE2800485CD6D67424006B
:1005100000C6663018CCC6000A4EEEB2B2FE4C00E1
:100520000080C06020000000000082C67C3800000F
:100530000000387CC682000010547C38387C54108F
:100540000010107C7C101000000000060701000065
:10055000001010101010100000000006060000002F
:10056000406030180C060200007CFEA292FE7C0067
:10057000000202FEFE2202000062F2928ACE4600D3
:10058000006CFE9292C6440008FEFE68281818000F
:10059000009CBEA2A2E6E400004CDE9292FE7C002B
:1005A00000C0E0BE9EC0C000006CFE9292FE6C00D7
:1005B000007CFE9292F664000000002424000000FB
:1005C0000000002627010000008282C66C3810005F
:1005D00000282828282828000010386CC6828200AD
:1005E0000060F09A8AC040000074F2B282FE7C0083
:1005F000003E7ED0D07E3E00006CFE9292FEFE0059
:100600000044C68282FE7C0000387CC682FEFE006A
:100610000082829292FEFE000080809090FEFE009A
:10062000005CDE9282FE7C0000FEFE1010FEFE00EA
:10063000000082FEFE8200000080FCFE82060400B4
:100640000082C66C38FEFE000002020202FEFE00BE
:10065000FEFE603060FEFE0000FEFE3870FEFE0012
:10066000007CFE8282FE7C000060F09090FEFE0026
:10067000007AFE8684FC78000062F69C98FEFE00FC
:10068000004CDE9292F66400008080FEFE808000C6
:1006900000FCFE0202FEFC0000F8FC0606FCF8006E
:1006A000FEFE0C180CFEFE0000C6EE3838EEC6004A
:1006B00000E0F01E1EF0E00000C2E2B29A8E86005A
:1006C00000008282FEFE0000406030180C0602002E
:1006D0000000FEFE828200000080C060200000005A
:1006E00001010101010101010080C0602000000042
:1006F000001E3E2A2A2E0400000C1E12127E7E00CE
:1007000000002222223E1C00007E7E12121E0C00DF
:1007100000183A2A2A3E1C000050507E3E1000006D
:10072000003E3F25253D1900000E1E10107E7E0064
:100730000000025E5E120000005E5F010101000029
:100740000002161C087E7E000000027E7E42000031
:100750001E3E381C183E3E00001E3E20203E3E003D
:10076000001C3E22223E1C0000183C24243F3F0077
:10077000003F3F24243C180000103020203E3E0063
:1007800000242E2A2A3A12000022227E7C202000F9
:10079000003E3E02023E3C0000383C06063C38006B
:1007A000383E0E1C0E3E38000022361C1C3622003D
:1007B000003C3E07053D39000022323A2E26220039
:1007C00000008282FEFE0000004492927A3E1602F1
:1007D0000000FEFE828200000010307F7F3010009B
:1007E000181818187E3C1800013054000000000052
:1007F00000000000000000000000000000000000F9
:1008000000000000008080808080D4FCFE9C1C1EC4
:100810001C1C1C180E06060606060E18181C1C1CAE
:100820001C1C1C1C040C0C0C0C08101000000000FC
:1008300000000000000000000000000000000000B8
:100840000000000000000000000000000000C0C028
:10085000800000000080C080C04141E7FF7D69E367
:10086000FA4061F1F163F69EC0000000808080884C
:10087000B8B8ACECFCCEFCC8B89890808080000082
:100880000000000000000000000000000000000068
:100890000000000000000000008080808010B03068
:1008A000E0901F7F5F1B3C280818FFEB83061EF8B3
:1008B000F103020001030081818100030FFEF8E1D2
:1008C000C1C3E72D3DF1830F0D01030F01070501A2
:1008D0008307FA3C1818302060C080808000000038
:1008E0000000000000000000000000000000071FE2
:1008F0007FFFFCF5FFBFA0E0F8F8207CD0F83F7F39
:100900007B59FEF7F1D0787EFEF83C3FFFB6B63754
:100910007F77E3818181F3F3BF3F3A38393F381E57
:10092000193D3EEFC6CF070C1810306040C0800064
:100930000181C3C6ECBCF8F8583030000103071F32
:100940003EFEFEEC6CEFEFEFFFF78787FFFFFFFC4B
:100950008001E0A080C081871FFFFF7A00FFFE00BA
:100960000040C18000C08103D7FFFFFBDFC0E0F083
:10097000F0C0E0F0E0E0F0F8DFEF60E0F07070B0C1
:1009800098DCED6F37370A0F03030000000000000A
:1009900000000000000003070C1D1B353935333FF4
:1009A000333F2B2B2B2F7B5B5F5B5B5F5B5B5F5B6B
:1009B0005B5B5F5B5B5F5B5B5F5B5B5F7B6B6F6B23
:1009C0006B6F2B3F7B37373535353F3E3A3E1D1D2C
:1009D0000F0E0703030100000000000000000000EC
:1009E0000000000011241FBECFEFD4E0DEBFCDBF5A
:1009F00011E0A0E0B1E0E0EAF7E102C005900D925D
:100A0000A237B107D9F711E0A2E7B1E001C01D920A
:100A1000A73BB107E1F70E94220B0C94CE0B0C947C
:100A200000008FE2982F9A95F1F75D985C985A989C
:100A3000982F9A95F1F7289A982F9A95F1F75E9842
:100A4000982F9A95F1F728988A95F1F7289A5E9A47
:100A50000895382F5D985C985A985E9820E890E049
:100A6000822F832311F05D9A01C05D985C9A5C9897
:100A70009F5F983011F02695F3CF5E9A08950F93FB
:100A80001F93182F062F88E20E942905812F805C72
:100A90000E942905802F80580E9429051F910F91DF
:100AA00008950E94110581E20E94290584E10E94B7
:100AB00029058AE00E94290585E00E9429058CEC21
:100AC0000E94290580E20E94290581E10E942905F2
:100AD0008CE00E9429050895382F5D985C985A9AF9
:100AE0005E9820E090E8892F832311F05D9A01C081
:100AF0005D985C9A5C982F5F283011F09695F3CF43
:100B00005E9A0895CF93DF9380E060E00E943F05F6
:100B1000C0E0D0E080E00E946C05219683E0C03305
:100B2000D807C1F7DF91CF910895BF92CF92DF929E
:100B3000EF92FF920F931F93CF93DF938C01B62E0A
:100B40000F5F1F4FF801E4900F5F1F4FF801F49003
:100B5000862F68E00E943F05FE9C6001112483E01F
:100B6000D594C7948A95E1F70F5F1F4FC0E0D0E09E
:100B7000EF2CFF2428C0CE01B7010E948A0B892BDD
:100B800041F4CE15DF0528F0B3948B2D68E00E9468
:100B90003F05F8018491982F991F9927991F86FD89
:100BA000926085FD946084FD986083FD906182FD74
:100BB000906281FD906480FD9068892F0E946C0591
:100BC00021960F5F1F4FCC15DD05A8F2DF91CF9165
:100BD0001F910F91FF90EF90DF90CF90BF900895FD
:100BE0002F923F924F925F926F927F928F929F923D
:100BF000AF92BF92CF92DF92EF92FF920F931F932B
:100C0000182FB42E95E6F92EF61A842F6F2D0E9418
:100C10003F05812F8052803608F010E2ECE01E9FE5
:100C2000F0011124E058F140CF010196E859FF4F3F
:100C300054909C012F5F3F4F88599F4FFC01749047
:100C4000C901019628593F4FF90184909C012F5FFB
:100C50003F4F88599F4FFC019490C9010196285934
:100C60003F4FF901A4909C012F5F3F4F88599F4F40
:100C7000FC01C490C901019628593F4FF901D49055
:100C80009C012F5F3F4F88599F4FFC01E490C901A1
:100C9000019628593F4FF90124909C012F5F3F4F47
:100CA00088599F4FFC013490F901E859FF4F449057
:100CB00027593F4FF901649011E000E0812F852111
:100CC00011F490E001C090E8812F872109F0906431
:100CD000812F882109F09062812F892109F090618C
:100CE000812F8A2109F09860812F8C2109F094606E
:100CF000812F8D2109F09260812F8E2109F0916062
:100D0000892F0E946C050F5F083011F0110FD6CFAC
:100D10008B2D8F5F6F2D0E943F0511E000E0812F2A
:100D2000822111F490E001C090E8812F832109F025
:100D30009064812F842109F09062812F862109F02F
:100D40009061892F0E946C050F5F083011F0110F20
:100D5000E6CF1F910F91FF90EF90DF90CF90BF9063
:100D6000AF909F908F907F906F905F904F903F904B
:100D70002F9008951F93CF93DF93182F862F6930FC
:100D800038F54D3028F5642F70E033E0660F771F9B
:100D90003A95E1F7709561957F4F6C5981500E94AB
:100DA0003F05812F8052803608F010E2C12FD0E03D
:100DB00023E0CC0FDD1F2A95E1F7C851DC4F10E08E
:100DC000FE0184910E946C051F5F21961830C1F7C7
:100DD000DF91CF911F910895EF92FF920F931F9390
:100DE000CF93DF93F82EE62E8A01C0E0D0E005C055
:100DF0006F2D0E94BA060F5F1F4F4E2D4C0FF8014A
:100E00008081882339F0F3E6FF1520F02196C23166
:100E1000D10571F7DF91CF911F910F91FF90EF9066
:100E20000895109280008CE08093810086E390E02A
:100E3000909389008093880082E080936F000895EA
:100E40001F920F920FB60F9211248F939F93809150
:100E500074019091750101969093750180937401CE
:100E6000809176018F5F80937601809176018A3040
:100E700050F010927601809177018F5F8093770117
:100E800081E080937B01809177018A3050F010924D
:100E90007701809178018F5F8093780181E0809362
:100EA0007C01809178018A3050F010927801809115
:100EB00079018F5F8093790181E080937D0180913A
:100EC00079018A3050F01092790180917A018F5F18
:100ED00080937A0181E080937E0180917A0186304F
:100EE00029F410927A0181E080937F019F918F9184
:100EF0000F900FBE0F901F9018950F931F939B019B
:100F0000AC0101EC10E0F801108266EA77EA8DE0AE
:100F100090E00E949E0BC901DA010197A109B10975
:100F2000292F3A2F4B2F55270196A11DB11D209334
:100F3000C50081508093C4001092C00088E9F80178
:100F4000808386E08093C2001F910F910895FC0179
:100F500007C08091C00085FFFCCF9093C6003196FA
:100F600090819923B1F70895982F8091C00085FF53
:100F7000FCCF9093C60008951F920F920FB60F9268
:100F800011248F939F93EF93FF938091C00087FF6D
:100F9000FCCF8091B6018823F9F4E0918301F091B0
:100FA00084018091C60080838091800190918101AD
:100FB00001969093810180938001E0918301F091EB
:100FC000840180818B3018F481E08093B6013196E2
:100FD000F0938401E0938301FF91EF919F918F91B2
:100FE0000F900FBE0F901F901895809186018B3344
:100FF00020F48F5F8093860108951092860180917E
:1010000082018B3320F48F5F8093820108951092C8
:1010100082018091B401873120F48F5F8093B40105
:1010200008951092B4010895FC0140E050E090E072
:101030008081823229F4442381F4492F4F5F0DC00F
:1010400031968081803218F09F5F983289F7342F73
:1010500020E0250F311DC9010895592FF1CF80914E
:101060008701909188010E941408992371F1A09141
:101070008701B0918801892F90E0FD01E80FF91FE9
:101080004081FC013196EA0FFB1F60810396FD0150
:10109000E80FF91F20810196A80FB91F8C914F709E
:1010A0009AE0499FA00111246F70640F6093B4010E
:1010B0002F70299F900111248F70820F80938201DD
:1010C0001092860181E0809385010895FC0190E0F3
:1010D00080818C3209F46150662319F4892F8F5F67
:1010E000089531968081803218F09F5F983281F7A1
:1010F00080E00895F89420E030E043ED5BE805C01F
:10110000FA013197F1F72F5F3F4F28173907C0F3E6
:1011100078940895DF92EF92FF920F931F93CF93ED
:10112000DF93809187019091880161E00E946608B9
:10113000882311F4DD2441C0A0918701B09188017A
:10114000482F50E043505040ED01C40FD51F4D5F74
:101150005F4F8881FA013297803330F4EA0FFB1F2A
:10116000D0808FE0D82213C0888190E08F7090707B
:101170009C0173E0220F331F7A95E1F7880F991FC6
:10118000D82ED20EEA0FFB1F80818F70D80E4F5FD2
:101190005F4FED01C40FD51F41505040888180330F
:1011A00028F4A40FB51F1C911F701CC0FA013296C1
:1011B000EA0FFB1F8081803310F010E013C0A40FF2
:1011C000B51F8C9190E08F7090709C0143E0220FCE
:1011D000331F4A95E1F7880F991F182F120F888146
:1011E0008F70180F80918701909188010E941408D8
:1011F000292F30E0E0908701F0908801E20EF31E85
:1012000000E0C82FD0E0C21BD30B07C08081402F65
:101210004D0D612F0E94BA060F5F202F30E0F701BD
:10122000E20FF31F80818A3130F0808187FD03C097
:101230002C173D075CF3DF91CF911F910F91FF9029
:10124000EF90DF900895CF92DF92EF92FF920F938D
:101250001F932091B401822F6AE00E947E0BA0E3CD
:10126000EA2EE80E205D46EF5FEF849F102D1124DB
:10127000120F20918201822F0E947E0BF0E3DF2E5D
:10128000D80E205D849F002D1124020F209186012D
:10129000822F0E947E0BE0E3CE2EC80E205D849F3D
:1012A000F02C1124F20E8E2D61E043E00E94BA066C
:1012B0008091C00085FFFCCFE092C600812F61E0E5
:1012C00044E00E94BA068091C00085FFFCCF1093D5
:1012D000C6008AE361E045E00E94BA068091C00042
:1012E00085FFFCCF8AE38093C6008D2D61E046E048
:1012F0000E94BA068091C00085FFFCCFD092C60044
:10130000802F61E047E00E94BA068091C00085FF0F
:10131000FCCF0093C6008AE361E048E00E94BA0671
:101320008091C00085FFFCCF8AE38093C6008C2D9E
:1013300061E049E00E94BA068091C00085FFFCCFC1
:10134000C092C6008F2D61E04AE00E94BA068091EB
:10135000C00085FFFCCFF092C6008091C00085FFE1
:10136000FCCF8DE08093C6008091C00085FFFCCF4C
:101370008AE08093C6001F910F91FF90EF90DF905D
:10138000CF900895109285010E9482050895FF92E2
:101390000F931F93DF93CF930F92CDB7DEB790E2F9
:1013A000FF24F3940FC0802F6F2D412F99830E944B
:1013B000BA060F5F1F5F99811D30A9F7945FF39400
:1013C000903B19F0092F11E0EECFF89480E090E007
:1013D00023ED3BE8F9013197F1F70196883C91053F
:1013E000C9F778940E94820590E2FF2410C0802FF4
:1013F000612F4F2D99830E94F0050F5F165F998131
:101400001E36A9F7965F82E0F80E983419F0092F7E
:101410001AE0EDCFF89480E090E023ED3BE8F9018D
:101420003197F1F70196883C9105C9F778940E94AD
:10143000820598E4FF2410C0802F612F4F2D9983DF
:101440000E94F0050F5F165F99811E36A9F7965F1F
:10145000E2E0FE0E903719F0092F1AE0EDCFF89474
:1014600080E090E023ED3BE8F9013197F1F7019638
:10147000883C9105C9F778940E94820588EE97E030
:1014800061E040E00E949505F89480E090E023ED53
:101490003BE8F9013197F1F70196883C9105C9F7CE
:1014A00078940E9482050F90CF91DF911F910F9148
:1014B000FF900895EF92FF920F931F93B0E0EB2EF1
:1014C000B1E0FB2E81E061E0A7010E94EC060DE097
:1014D00011E082E061E0A8010E94EC0683E061E097
:1014E0004AE151E00E94EC0684E061E047E251E00D
:1014F0000E94EC0685E061E0A8010E94EC0686E00F
:1015000061E044E351E00E94EC0687E061E0A8015D
:101510000E94EC0688E061E0A7010E94EC061F91A2
:101520000F91FF90EF900895CF93DF9380E060E0FC
:101530000E943F05C0E0D0E08FEF0E946C0521962D
:1015400083E0C033D807C1F7DF91CF9108951F938F
:1015500080918A018F3309F44FC08AE891E061E4F9
:1015600071E044E050E00E94C00B009719F40E9423
:101570005A0A42C08AE891E066E471E043E050E034
:101580000E94C00B009719F40E94C20935C08AE876
:1015900091E06AE471E044E050E00E94C00B0097E3
:1015A00019F40E948A0828C08AE891E06FE471E08B
:1015B00045E050E00E94C00B009719F40E94940A85
:1015C0001BC08AE891E065E571E044E050E00E94CC
:1015D000C00B009719F40E94C7090EC08AE891E079
:1015E0006AE571E044E050E00E94C00B009711F002
:1015F00011E003C00E942F0810E0EAE8F1E007C004
:101600008091C00085FFFCCF9093C60031969081F9
:101610009E3020F081E0EE39F80791F7112319F49C
:101620008FE591E002C087E691E00E94A7078AE873
:1016300091E090938401809383011092B601812FF1
:101640001F91089581E084B917B886E78AB98AE8BE
:1016500091E0909388018093870190938401809317
:101660008301F89460E07BE480E090E00E947D07D5
:10167000109280008CE08093810086E390E090934C
:1016800089008093880082E080936F0078940E94A4
:1016900051050E9482050E94C7090E945A0A809142
:1016A0007B01882311F010927B0180917C018823BB
:1016B00051F010927C018091B601813021F48AE8CA
:1016C00091E00E94A70A80917D01882351F0109239
:1016D0007D010E94F50780918501813011F40E94FF
:1016E000230980917E01882311F010927E01809160
:1016F0007F018823A1F210927F01D1CF991B79E05D
:1017000004C0991F961708F0961B881F7A95C9F791
:1017100080950895AA1BBB1B51E107C0AA1FBB1FE0
:10172000A617B70710F0A61BB70B881F991F5A956D
:10173000A9F780959095BC01CD010895A1E21A2EDC
:10174000AA1BBB1BFD010DC0AA1FBB1FEE1FFF1F65
:10175000A217B307E407F50720F0A21BB30BE40BB5
:10176000F50B661F771F881F991F1A9469F76095FC
:101770007095809590959B01AC01BD01CF010895B6
:10178000FB01DC014150504030F08D9101908019F7
:1017900019F40020B9F7881B990B0895F894FFCF2E
:1017A0002A2A2A2A2A2A2A2A2A2A2A2A00202020E1
:1017B00020202020202020202000204137302031F0
:1017C000303178363420002D2D2D2D2D2D2D2D2D21
:1017D0002D2D2D002D3E20313932303020384E3124
:1017E0000068656C7000636C73007478742000622C
:1017F0006C61636B0064656D6F0074696D650020DA
:101800002E2E2E6F6B2100202E2E2E6572726F727F
:021810002100B5
:00000001FF
