:1000000098EF00F0EA6A060EE96EEF500EE00F0E70
:10001000016E006A002EFED7012EFBD78F0E006EF8
:10002000002EFED70000EF2EF2D7000C075202E19F
:100030008A9401D08A849394096A0950070814E3CA
:1000400093968A9608AE03D093988A8802D09398A4
:100050008A9893968A86D8900836270E006E002ECE
:10006000FED700D0092AE9D7000C076A400E086EB7
:10007000DDDF076A800E086ED9DF066A056A065062
:1000800003080CE303E10550950808E3010E076E31
:10009000086ACCDF052AD8B4062AF1D796EF00F01B
:1000A00093908A9093928A920A0E066EABDF939297
:1000B0008A820A0E066EA6DF8A9893988A9693968D
:1000C0008A9093908A9893988A8293928A90939038
:1000D0008A9293928A8293928A809390076A210EE1
:1000E000086EA4DF076A0A0E086EA0DF076A140E06
:1000F000086E9CDF076A050E086E98DF076ACC0E53
:10010000086E94DF076A200E086E90DF076A110EF2
:10011000086E8CDF076A0C0E086E88DF040E056E11
:10012000FA0E066E6FDF052EFBD79FD7A3EF00F008
:10013000F86AD09EEA6AE96AC150C00B0F09C16E25
:10014000070EB46EADD7010E076EFF0E086E6EDFA0
:1001500095928C82640E066E55DF95928C92640E99
:10016000066E50DF010E076EFF0E086E5FDFF0D7E0
:0201700003008A
:020000040030CA
:0E00000023CE381E0087A1000FC00FE00F4076
:00000001FF
;PIC18F4550
;CRC=FB61  CREATED="24-jun-13 20:53"
